{
  "contractName": "BaseCollection",
  "abi": [
    {
      "constant": true,
      "inputs": [
        {
          "name": "addr",
          "type": "address"
        },
        {
          "name": "roleName",
          "type": "string"
        }
      ],
      "name": "checkRole",
      "outputs": [],
      "payable": false,
      "stateMutability": "view",
      "type": "function"
    },
    {
      "constant": true,
      "inputs": [],
      "name": "karmaCoin",
      "outputs": [
        {
          "name": "",
          "type": "address"
        }
      ],
      "payable": false,
      "stateMutability": "view",
      "type": "function"
    },
    {
      "constant": true,
      "inputs": [
        {
          "name": "addr",
          "type": "address"
        },
        {
          "name": "roleName",
          "type": "string"
        }
      ],
      "name": "hasRole",
      "outputs": [
        {
          "name": "",
          "type": "bool"
        }
      ],
      "payable": false,
      "stateMutability": "view",
      "type": "function"
    },
    {
      "constant": true,
      "inputs": [],
      "name": "scholarshipContract",
      "outputs": [
        {
          "name": "",
          "type": "address"
        }
      ],
      "payable": false,
      "stateMutability": "view",
      "type": "function"
    },
    {
      "constant": true,
      "inputs": [],
      "name": "ROLE_PARTNER",
      "outputs": [
        {
          "name": "",
          "type": "string"
        }
      ],
      "payable": false,
      "stateMutability": "view",
      "type": "function"
    },
    {
      "constant": false,
      "inputs": [
        {
          "name": "addr",
          "type": "address"
        },
        {
          "name": "roleName",
          "type": "string"
        }
      ],
      "name": "adminRemoveRole",
      "outputs": [],
      "payable": false,
      "stateMutability": "nonpayable",
      "type": "function"
    },
    {
      "constant": true,
      "inputs": [],
      "name": "owner",
      "outputs": [
        {
          "name": "",
          "type": "address"
        }
      ],
      "payable": false,
      "stateMutability": "view",
      "type": "function"
    },
    {
      "constant": false,
      "inputs": [
        {
          "name": "addr",
          "type": "address"
        },
        {
          "name": "roleName",
          "type": "string"
        }
      ],
      "name": "adminAddRole",
      "outputs": [],
      "payable": false,
      "stateMutability": "nonpayable",
      "type": "function"
    },
    {
      "constant": true,
      "inputs": [],
      "name": "ROLE_ADMIN",
      "outputs": [
        {
          "name": "",
          "type": "string"
        }
      ],
      "payable": false,
      "stateMutability": "view",
      "type": "function"
    },
    {
      "constant": true,
      "inputs": [],
      "name": "gyanCoin",
      "outputs": [
        {
          "name": "",
          "type": "address"
        }
      ],
      "payable": false,
      "stateMutability": "view",
      "type": "function"
    },
    {
      "constant": false,
      "inputs": [
        {
          "name": "newOwner",
          "type": "address"
        }
      ],
      "name": "transferOwnership",
      "outputs": [],
      "payable": false,
      "stateMutability": "nonpayable",
      "type": "function"
    },
    {
      "inputs": [
        {
          "name": "_karma",
          "type": "address"
        },
        {
          "name": "_gyan",
          "type": "address"
        },
        {
          "name": "_scholarships",
          "type": "address"
        }
      ],
      "payable": false,
      "stateMutability": "nonpayable",
      "type": "constructor"
    },
    {
      "anonymous": false,
      "inputs": [
        {
          "indexed": false,
          "name": "_id",
          "type": "bytes32"
        },
        {
          "indexed": false,
          "name": "_type",
          "type": "bytes32"
        },
        {
          "indexed": false,
          "name": "pbNode",
          "type": "address"
        }
      ],
      "name": "CollectionCreate",
      "type": "event"
    },
    {
      "anonymous": false,
      "inputs": [
        {
          "indexed": false,
          "name": "_id",
          "type": "bytes32"
        },
        {
          "indexed": false,
          "name": "_participantAddress",
          "type": "address"
        },
        {
          "indexed": false,
          "name": "pbNode",
          "type": "address"
        }
      ],
      "name": "CollectionJoin",
      "type": "event"
    },
    {
      "anonymous": false,
      "inputs": [
        {
          "indexed": false,
          "name": "_id",
          "type": "bytes32"
        },
        {
          "indexed": false,
          "name": "_participantAddress",
          "type": "address"
        },
        {
          "indexed": false,
          "name": "_assessmentResult",
          "type": "bytes32"
        },
        {
          "indexed": false,
          "name": "academicGyan",
          "type": "uint256"
        },
        {
          "indexed": false,
          "name": "engagementGyan",
          "type": "uint256"
        },
        {
          "indexed": false,
          "name": "commitmentGyan",
          "type": "uint256"
        },
        {
          "indexed": false,
          "name": "pbNode",
          "type": "address"
        }
      ],
      "name": "CollectionAssess",
      "type": "event"
    },
    {
      "anonymous": false,
      "inputs": [
        {
          "indexed": false,
          "name": "_id",
          "type": "bytes32"
        },
        {
          "indexed": false,
          "name": "_participantAddress",
          "type": "address"
        },
        {
          "indexed": false,
          "name": "pbNode",
          "type": "address"
        }
      ],
      "name": "CollectionDrop",
      "type": "event"
    },
    {
      "anonymous": false,
      "inputs": [
        {
          "indexed": false,
          "name": "addr",
          "type": "address"
        },
        {
          "indexed": false,
          "name": "roleName",
          "type": "string"
        }
      ],
      "name": "RoleAdded",
      "type": "event"
    },
    {
      "anonymous": false,
      "inputs": [
        {
          "indexed": false,
          "name": "addr",
          "type": "address"
        },
        {
          "indexed": false,
          "name": "roleName",
          "type": "string"
        }
      ],
      "name": "RoleRemoved",
      "type": "event"
    },
    {
      "anonymous": false,
      "inputs": [
        {
          "indexed": true,
          "name": "previousOwner",
          "type": "address"
        },
        {
          "indexed": true,
          "name": "newOwner",
          "type": "address"
        }
      ],
      "name": "OwnershipTransferred",
      "type": "event"
    },
    {
      "constant": false,
      "inputs": [
        {
          "name": "_id",
          "type": "bytes32"
        },
        {
          "name": "_teacherAddress",
          "type": "address"
        },
        {
          "name": "_type",
          "type": "bytes32"
        },
        {
          "name": "_learningHours",
          "type": "uint256"
        },
        {
          "name": "_academicGyan",
          "type": "uint256"
        },
        {
          "name": "_nonAcademicGyan",
          "type": "uint256"
        },
        {
          "name": "_assessmentRuleKeys",
          "type": "bytes32[]"
        },
        {
          "name": "_assessmentRuleValues",
          "type": "uint256[]"
        },
        {
          "name": "_nonAcademicRules",
          "type": "uint256[]"
        },
        {
          "name": "_topics",
          "type": "bytes32[]"
        }
      ],
      "name": "create",
      "outputs": [
        {
          "name": "",
          "type": "bool"
        }
      ],
      "payable": false,
      "stateMutability": "nonpayable",
      "type": "function"
    },
    {
      "constant": false,
      "inputs": [
        {
          "name": "_id",
          "type": "bytes32"
        },
        {
          "name": "_participantAddress",
          "type": "address"
        },
        {
          "name": "_hash",
          "type": "bytes32"
        }
      ],
      "name": "addHash",
      "outputs": [
        {
          "name": "",
          "type": "bool"
        }
      ],
      "payable": false,
      "stateMutability": "nonpayable",
      "type": "function"
    },
    {
      "constant": true,
      "inputs": [
        {
          "name": "_id",
          "type": "bytes32"
        }
      ],
      "name": "getData",
      "outputs": [
        {
          "name": "",
          "type": "bytes32"
        },
        {
          "name": "",
          "type": "bytes32[]"
        },
        {
          "name": "",
          "type": "bytes32[]"
        },
        {
          "name": "",
          "type": "uint256"
        },
        {
          "name": "",
          "type": "uint256"
        },
        {
          "name": "",
          "type": "address"
        },
        {
          "name": "",
          "type": "uint256"
        }
      ],
      "payable": false,
      "stateMutability": "view",
      "type": "function"
    },
    {
      "constant": true,
      "inputs": [
        {
          "name": "_id",
          "type": "bytes32"
        }
      ],
      "name": "getTeacher",
      "outputs": [
        {
          "name": "",
          "type": "address"
        }
      ],
      "payable": false,
      "stateMutability": "view",
      "type": "function"
    },
    {
      "constant": true,
      "inputs": [
        {
          "name": "_id",
          "type": "bytes32"
        },
        {
          "name": "_participantAddress",
          "type": "address"
        }
      ],
      "name": "getHashOf",
      "outputs": [
        {
          "name": "",
          "type": "bytes32"
        }
      ],
      "payable": false,
      "stateMutability": "view",
      "type": "function"
    },
    {
      "constant": true,
      "inputs": [
        {
          "name": "_id",
          "type": "bytes32"
        }
      ],
      "name": "getLearningHours",
      "outputs": [
        {
          "name": "",
          "type": "uint256"
        }
      ],
      "payable": false,
      "stateMutability": "view",
      "type": "function"
    },
    {
      "constant": true,
      "inputs": [
        {
          "name": "_id",
          "type": "bytes32"
        }
      ],
      "name": "getGyan",
      "outputs": [
        {
          "name": "",
          "type": "uint256"
        }
      ],
      "payable": false,
      "stateMutability": "view",
      "type": "function"
    },
    {
      "constant": true,
      "inputs": [
        {
          "name": "_id",
          "type": "bytes32"
        }
      ],
      "name": "getAcademicGyan",
      "outputs": [
        {
          "name": "",
          "type": "uint256"
        }
      ],
      "payable": false,
      "stateMutability": "view",
      "type": "function"
    },
    {
      "constant": true,
      "inputs": [
        {
          "name": "_id",
          "type": "bytes32"
        }
      ],
      "name": "getNonAcademicGyan",
      "outputs": [
        {
          "name": "",
          "type": "uint256"
        }
      ],
      "payable": false,
      "stateMutability": "view",
      "type": "function"
    },
    {
      "constant": true,
      "inputs": [
        {
          "name": "_id",
          "type": "bytes32"
        }
      ],
      "name": "getType",
      "outputs": [
        {
          "name": "",
          "type": "bytes32"
        }
      ],
      "payable": false,
      "stateMutability": "view",
      "type": "function"
    },
    {
      "constant": true,
      "inputs": [
        {
          "name": "_id",
          "type": "bytes32"
        }
      ],
      "name": "getParticipants",
      "outputs": [
        {
          "name": "",
          "type": "address[]"
        }
      ],
      "payable": false,
      "stateMutability": "view",
      "type": "function"
    },
    {
      "constant": true,
      "inputs": [
        {
          "name": "_id",
          "type": "bytes32"
        },
        {
          "name": "_participantAddress",
          "type": "address"
        }
      ],
      "name": "getResultOf",
      "outputs": [
        {
          "name": "",
          "type": "uint256"
        },
        {
          "name": "",
          "type": "uint256"
        },
        {
          "name": "",
          "type": "uint256"
        }
      ],
      "payable": false,
      "stateMutability": "view",
      "type": "function"
    },
    {
      "constant": true,
      "inputs": [
        {
          "name": "_id",
          "type": "bytes32"
        },
        {
          "name": "_assessmentRule",
          "type": "bytes32"
        }
      ],
      "name": "getAssessmentValueOf",
      "outputs": [
        {
          "name": "",
          "type": "uint256"
        }
      ],
      "payable": false,
      "stateMutability": "view",
      "type": "function"
    },
    {
      "constant": false,
      "inputs": [
        {
          "name": "_id",
          "type": "bytes32"
        },
        {
          "name": "_participantAddress",
          "type": "address"
        },
        {
          "name": "_scholarshipId",
          "type": "bytes32"
        }
      ],
      "name": "join",
      "outputs": [
        {
          "name": "",
          "type": "bool"
        }
      ],
      "payable": false,
      "stateMutability": "nonpayable",
      "type": "function"
    },
    {
      "constant": false,
      "inputs": [
        {
          "name": "_id",
          "type": "bytes32"
        },
        {
          "name": "_participantAddress",
          "type": "address"
        }
      ],
      "name": "drop",
      "outputs": [
        {
          "name": "",
          "type": "bool"
        }
      ],
      "payable": false,
      "stateMutability": "nonpayable",
      "type": "function"
    },
    {
      "constant": false,
      "inputs": [
        {
          "name": "_id",
          "type": "bytes32"
        },
        {
          "name": "_participantAddress",
          "type": "address"
        },
        {
          "name": "_assessmentRule",
          "type": "bytes32"
        },
        {
          "name": "_engagementPercent",
          "type": "uint256"
        },
        {
          "name": "_commitmentPercent",
          "type": "uint256"
        },
        {
          "name": "_hash",
          "type": "bytes32"
        }
      ],
      "name": "assess",
      "outputs": [
        {
          "name": "",
          "type": "bool"
        }
      ],
      "payable": false,
      "stateMutability": "nonpayable",
      "type": "function"
    },
    {
      "constant": true,
      "inputs": [
        {
          "name": "_gyan",
          "type": "uint256"
        }
      ],
      "name": "getKarmaToBurn",
      "outputs": [
        {
          "name": "",
          "type": "uint256"
        }
      ],
      "payable": false,
      "stateMutability": "view",
      "type": "function"
    },
    {
      "constant": true,
      "inputs": [
        {
          "name": "_totalAcademicGyan",
          "type": "uint256"
        },
        {
          "name": "_percentGyan",
          "type": "uint256"
        }
      ],
      "name": "getAssessedAcademicGyan",
      "outputs": [
        {
          "name": "",
          "type": "uint256"
        }
      ],
      "payable": false,
      "stateMutability": "pure",
      "type": "function"
    },
    {
      "constant": true,
      "inputs": [
        {
          "name": "_totalNonAcademicGyan",
          "type": "uint256"
        },
        {
          "name": "_engagementRule",
          "type": "uint256"
        },
        {
          "name": "_percentGyan",
          "type": "uint256"
        }
      ],
      "name": "getAssessedEngagementGyan",
      "outputs": [
        {
          "name": "",
          "type": "uint256"
        }
      ],
      "payable": false,
      "stateMutability": "pure",
      "type": "function"
    },
    {
      "constant": true,
      "inputs": [
        {
          "name": "_totalNonAcademicGyan",
          "type": "uint256"
        },
        {
          "name": "_commitmentRule",
          "type": "uint256"
        },
        {
          "name": "_percentGyan",
          "type": "uint256"
        }
      ],
      "name": "getAssessedCommitmentGyan",
      "outputs": [
        {
          "name": "",
          "type": "uint256"
        }
      ],
      "payable": false,
      "stateMutability": "pure",
      "type": "function"
    }
  ],
  "bytecode": "0x60806040523480156200001157600080fd5b50604051606080620048c1833981018060405281019080805190602001909291908051906020019092919080519060200190929190505050336000806101000a81548173ffffffffffffffffffffffffffffffffffffffff021916908373ffffffffffffffffffffffffffffffffffffffff160217905550620000d9336040805190810160405280600581526020017f61646d696e000000000000000000000000000000000000000000000000000000815250620002ac640100000000026401000000009004565b62000129336040805190810160405280600781526020017f706172746e657200000000000000000000000000000000000000000000000000815250620002ac640100000000026401000000009004565b600073ffffffffffffffffffffffffffffffffffffffff168373ffffffffffffffffffffffffffffffffffffffff16141515156200016657600080fd5b600073ffffffffffffffffffffffffffffffffffffffff168273ffffffffffffffffffffffffffffffffffffffff1614151515620001a357600080fd5b600073ffffffffffffffffffffffffffffffffffffffff168173ffffffffffffffffffffffffffffffffffffffff1614151515620001e057600080fd5b82600260006101000a81548173ffffffffffffffffffffffffffffffffffffffff021916908373ffffffffffffffffffffffffffffffffffffffff16021790555081600360006101000a81548173ffffffffffffffffffffffffffffffffffffffff021916908373ffffffffffffffffffffffffffffffffffffffff16021790555080600460006101000a81548173ffffffffffffffffffffffffffffffffffffffff021916908373ffffffffffffffffffffffffffffffffffffffff16021790555050505062000470565b6200033b826001836040518082805190602001908083835b602083101515620002eb5780518252602082019150602081019050602083039250620002c4565b6001836020036101000a038019825116818451168082178552505050505050905001915050908152602001604051809103902062000412640100000000026200433f179091906401000000009004565b7fbfec83d64eaa953f2708271a023ab9ee82057f8f3578d548c1a4ba0b5b7004898282604051808373ffffffffffffffffffffffffffffffffffffffff1673ffffffffffffffffffffffffffffffffffffffff16815260200180602001828103825283818151815260200191508051906020019080838360005b83811015620003d2578082015181840152602081019050620003b5565b50505050905090810190601f168015620004005780820380516001836020036101000a031916815260200191505b50935050505060405180910390a15050565b60018260000160008373ffffffffffffffffffffffffffffffffffffffff1673ffffffffffffffffffffffffffffffffffffffff16815260200190815260200160002060006101000a81548160ff0219169083151502179055505050565b61444180620004806000396000f30060806040526004361061018b576000357c0100000000000000000000000000000000000000000000000000000000900463ffffffff1680630988ca8c146101905780630b0235be1461021957806318de998f1461029f5780631a026641146102f65780631d5fb26a14610363578063217fe6c6146103d65780632b2fbbd7146104775780633762c636146104cc578063397a7e91146105215780634e75ce661461056657806354f6127f146107075780635bc738711461082c5780635d6f4f5e1461088357806364155547146108ec57806376586fd31461097c5780637f2aeea4146109ed57806388cee87e14610a3a5780638da5cb5b14610ac35780639314ddb314610b1a57806396f99b6e14610b5b578063a1983fe114610ba0578063a605002f14610bf3578063afd2017014610c38578063b25fa92c14610caf578063cc41898e14610d38578063d2703baf14610d83578063d391014b14610dfa578063dd5075fc14610e8a578063e9f9f17814610ecf578063ef61a61114610f26578063f2fde38b14610fbf575b600080fd5b34801561019c57600080fd5b50610217600480360381019080803573ffffffffffffffffffffffffffffffffffffffff169060200190929190803590602001908201803590602001908080601f0160208091040260200160405190810160405280939291908181526020018383808284378201915050505050509192919290505050611002565b005b34801561022557600080fd5b506102486004803603810190808035600019169060200190929190505050611083565b6040518080602001828103825283818151815260200191508051906020019060200280838360005b8381101561028b578082015181840152602081019050610270565b505050509050019250505060405180910390f35b3480156102ab57600080fd5b506102b461112f565b604051808273ffffffffffffffffffffffffffffffffffffffff1673ffffffffffffffffffffffffffffffffffffffff16815260200191505060405180910390f35b34801561030257600080fd5b506103456004803603810190808035600019169060200190929190803573ffffffffffffffffffffffffffffffffffffffff169060200190929190505050611155565b60405180826000191660001916815260200191505060405180910390f35b34801561036f57600080fd5b506103b26004803603810190808035600019169060200190929190803573ffffffffffffffffffffffffffffffffffffffff1690602001909291905050506111bb565b60405180848152602001838152602001828152602001935050505060405180910390f35b3480156103e257600080fd5b5061045d600480360381019080803573ffffffffffffffffffffffffffffffffffffffff169060200190929190803590602001908201803590602001908080601f0160208091040260200160405190810160405280939291908181526020018383808284378201915050505050509192919290505050611380565b604051808215151515815260200191505060405180910390f35b34801561048357600080fd5b506104b6600480360381019080803590602001909291908035906020019092919080359060200190929190505050611407565b6040518082815260200191505060405180910390f35b3480156104d857600080fd5b5061050b60048036038101908080359060200190929190803590602001909291908035906020019092919050505061145d565b6040518082815260200191505060405180910390f35b34801561052d57600080fd5b5061055060048036038101908080356000191690602001909291905050506114b3565b6040518082815260200191505060405180910390f35b34801561057257600080fd5b506106ed6004803603810190808035600019169060200190929190803573ffffffffffffffffffffffffffffffffffffffff1690602001909291908035600019169060200190929190803590602001909291908035906020019092919080359060200190929190803590602001908201803590602001908080602002602001604051908101604052809392919081815260200183836020028082843782019150505050505091929192908035906020019082018035906020019080806020026020016040519081016040528093929190818152602001838360200280828437820191505050505050919291929080359060200190820180359060200190808060200260200160405190810160405280939291908181526020018383602002808284378201915050505050509192919290803590602001908201803590602001908080602002602001604051908101604052809392919081815260200183836020028082843782019150505050505091929192905050506114db565b604051808215151515815260200191505060405180910390f35b34801561071357600080fd5b506107366004803603810190808035600019169060200190929190505050611b2c565b60405180886000191660001916815260200180602001806020018781526020018681526020018573ffffffffffffffffffffffffffffffffffffffff1673ffffffffffffffffffffffffffffffffffffffff168152602001848152602001838103835289818151815260200191508051906020019060200280838360005b838110156107cf5780820151818401526020810190506107b4565b50505050905001838103825288818151815260200191508051906020019060200280838360005b838110156108115780820151818401526020810190506107f6565b50505050905001995050505050505050505060405180910390f35b34801561083857600080fd5b50610841611cf3565b604051808273ffffffffffffffffffffffffffffffffffffffff1673ffffffffffffffffffffffffffffffffffffffff16815260200191505060405180910390f35b34801561088f57600080fd5b506108d26004803603810190808035600019169060200190929190803573ffffffffffffffffffffffffffffffffffffffff169060200190929190505050611d19565b604051808215151515815260200191505060405180910390f35b3480156108f857600080fd5b50610901612065565b6040518080602001828103825283818151815260200191508051906020019080838360005b83811015610941578082015181840152602081019050610926565b50505050905090810190601f16801561096e5780820380516001836020036101000a031916815260200191505b509250505060405180910390f35b34801561098857600080fd5b506109ab600480360381019080803560001916906020019092919050505061209e565b604051808273ffffffffffffffffffffffffffffffffffffffff1673ffffffffffffffffffffffffffffffffffffffff16815260200191505060405180910390f35b3480156109f957600080fd5b50610a1c60048036038101908080356000191690602001909291905050506120e6565b60405180826000191660001916815260200191505060405180910390f35b348015610a4657600080fd5b50610ac1600480360381019080803573ffffffffffffffffffffffffffffffffffffffff169060200190929190803590602001908201803590602001908080601f016020809104026020016040519081016040528093929190818152602001838380828437820191505050505050919291929050505061210e565b005b348015610acf57600080fd5b50610ad861215b565b604051808273ffffffffffffffffffffffffffffffffffffffff1673ffffffffffffffffffffffffffffffffffffffff16815260200191505060405180910390f35b348015610b2657600080fd5b50610b4560048036038101908080359060200190929190505050612180565b6040518082815260200191505060405180910390f35b348015610b6757600080fd5b50610b8a6004803603810190808035600019169060200190929190505050612373565b6040518082815260200191505060405180910390f35b348015610bac57600080fd5b50610bdd600480360381019080803560001916906020019092919080356000191690602001909291905050506123bb565b6040518082815260200191505060405180910390f35b348015610bff57600080fd5b50610c2260048036038101908080356000191690602001909291905050506123fd565b6040518082815260200191505060405180910390f35b348015610c4457600080fd5b50610c956004803603810190808035600019169060200190929190803573ffffffffffffffffffffffffffffffffffffffff1690602001909291908035600019169060200190929190505050612425565b604051808215151515815260200191505060405180910390f35b348015610cbb57600080fd5b50610d36600480360381019080803573ffffffffffffffffffffffffffffffffffffffff169060200190929190803590602001908201803590602001908080601f016020809104026020016040519081016040528093929190818152602001838380828437820191505050505050919291929050505061310d565b005b348015610d4457600080fd5b50610d6d600480360381019080803590602001909291908035906020019092919050505061315a565b6040518082815260200191505060405180910390f35b348015610d8f57600080fd5b50610de06004803603810190808035600019169060200190929190803573ffffffffffffffffffffffffffffffffffffffff169060200190929190803560001916906020019092919050505061318a565b604051808215151515815260200191505060405180910390f35b348015610e0657600080fd5b50610e0f613476565b6040518080602001828103825283818151815260200191508051906020019080838360005b83811015610e4f578082015181840152602081019050610e34565b50505050905090810190601f168015610e7c5780820380516001836020036101000a031916815260200191505b509250505060405180910390f35b348015610e9657600080fd5b50610eb960048036038101908080356000191690602001909291905050506134af565b6040518082815260200191505060405180910390f35b348015610edb57600080fd5b50610ee46134d7565b604051808273ffffffffffffffffffffffffffffffffffffffff1673ffffffffffffffffffffffffffffffffffffffff16815260200191505060405180910390f35b348015610f3257600080fd5b50610fa56004803603810190808035600019169060200190929190803573ffffffffffffffffffffffffffffffffffffffff1690602001909291908035600019169060200190929190803590602001909291908035906020019092919080356000191690602001909291905050506134fd565b604051808215151515815260200191505060405180910390f35b348015610fcb57600080fd5b50611000600480360381019080803573ffffffffffffffffffffffffffffffffffffffff169060200190929190505050613e22565b005b61107f826001836040518082805190602001908083835b60208310151561103e5780518252602082019150602081019050602083039250611019565b6001836020036101000a0380198251168184511680821785525050505050509050019150509081526020016040518091039020613f7790919063ffffffff16565b5050565b6060600560008360001916600019168152602001908152602001600020600a0180548060200260200160405190810160405280929190818152602001828054801561112357602002820191906000526020600020905b8160009054906101000a900473ffffffffffffffffffffffffffffffffffffffff1673ffffffffffffffffffffffffffffffffffffffff16815260200190600101908083116110d9575b50505050509050919050565b600260009054906101000a900473ffffffffffffffffffffffffffffffffffffffff1681565b600060056000846000191660001916815260200190815260200160002060070160008373ffffffffffffffffffffffffffffffffffffffff1673ffffffffffffffffffffffffffffffffffffffff16815260200190815260200160002054905092915050565b600080600060056000866000191660001916815260200190815260200160002060100160007f61636164656d696300000000000000000000000000000000000000000000000060001916815260200190815260200160002060008573ffffffffffffffffffffffffffffffffffffffff1673ffffffffffffffffffffffffffffffffffffffff1681526020019081526020016000205460056000876000191660001916815260200190815260200160002060100160007f656e676167656d656e740000000000000000000000000000000000000000000060001916815260200190815260200160002060008673ffffffffffffffffffffffffffffffffffffffff1673ffffffffffffffffffffffffffffffffffffffff1681526020019081526020016000205460056000886000191660001916815260200190815260200160002060100160007f636f6d6d69746d656e740000000000000000000000000000000000000000000060001916815260200190815260200160002060008773ffffffffffffffffffffffffffffffffffffffff1673ffffffffffffffffffffffffffffffffffffffff168152602001908152602001600020549250925092509250925092565b60006113ff836001846040518082805190602001908083835b6020831015156113be5780518252602082019150602081019050602083039250611399565b6001836020036101000a0380198251168184511680821785525050505050509050019150509081526020016040518091039020613f9090919063ffffffff16565b905092915050565b6000611454606461144684611438606461142a898b613fe990919063ffffffff16565b61402490919063ffffffff16565b613fe990919063ffffffff16565b61402490919063ffffffff16565b90509392505050565b60006114aa606461149c8461148e6064611480898b613fe990919063ffffffff16565b61402490919063ffffffff16565b613fe990919063ffffffff16565b61402490919063ffffffff16565b90509392505050565b6000600560008360001916600019168152602001908152602001600020600101549050919050565b6000806040805190810160405280600781526020017f706172746e65720000000000000000000000000000000000000000000000000081525061151e3382611002565b60007f0100000000000000000000000000000000000000000000000000000000000000028d600060208110151561155157fe5b1a7f0100000000000000000000000000000000000000000000000000000000000000027effffffffffffffffffffffffffffffffffffffffffffffffffffffffffffff1916141515156115a357600080fd5b6000600560008f60001916600019168152602001908152602001600020600401541415156115d057600080fd5b600073ffffffffffffffffffffffffffffffffffffffff168c73ffffffffffffffffffffffffffffffffffffffff161415151561160c57600080fd5b60007f0100000000000000000000000000000000000000000000000000000000000000028b600060208110151561163f57fe5b1a7f0100000000000000000000000000000000000000000000000000000000000000027effffffffffffffffffffffffffffffffffffffffffffffffffffffffffffff19161415151561169157600080fd5b6000891115156116a057600080fd5b6000881115156116af57600080fd5b600084511115156116bf57600080fd5b60008a1115156116ce57600080fd5b855187511415156116de57600080fd5b600360009054906101000a900473ffffffffffffffffffffffffffffffffffffffff1673ffffffffffffffffffffffffffffffffffffffff16638f74c6ac8d6040518263ffffffff167c0100000000000000000000000000000000000000000000000000000000028152600401808273ffffffffffffffffffffffffffffffffffffffff1673ffffffffffffffffffffffffffffffffffffffff168152602001915050602060405180830381600087803b15801561179b57600080fd5b505af11580156117af573d6000803e3d6000fd5b505050506040513d60208110156117c557600080fd5b8101908080519060200190929190505050888a011115806117e7575089888a01145b15156117f257600080fd5b8b600560008f6000191660001916815260200190815260200160002060030160006101000a81548173ffffffffffffffffffffffffffffffffffffffff021916908373ffffffffffffffffffffffffffffffffffffffff1602179055508a600560008f60001916600019168152602001908152602001600020600001816000191690555088600560008f600019166000191681526020019081526020016000206001018190555087600560008f600019166000191681526020019081526020016000206002018190555042600560008f600019166000191681526020019081526020016000206004018190555083600560008f60001916600019168152602001908152602001600020600901908051906020019061191192919061439d565b5089600560008f600019166000191681526020019081526020016000206005018190555084600081518110151561194457fe5b90602001906020020151600560008f60001916600019168152602001908152602001600020600c018190555084600181518110151561197f57fe5b90602001906020020151600560008f60001916600019168152602001908152602001600020600d0181905550600091505b8651821015611a955785828151811015156119c757fe5b90602001906020020151600560008f60001916600019168152602001908152602001600020600b01600089858151811015156119ff57fe5b906020019060200201516000191660001916815260200190815260200160002081905550600560008e60001916600019168152602001908152602001600020600e018783815181101515611a4f57fe5b90602001906020020151908060018154018082558091505090600182039060005260206000200160009091929091909150906000191690555081806001019250506119b0565b7f30b0942e371970fe386d51129e4e29a429b6045bd6f1c0ac0592f259769a35248d8c3360405180846000191660001916815260200183600019166000191681526020018273ffffffffffffffffffffffffffffffffffffffff1673ffffffffffffffffffffffffffffffffffffffff168152602001935050505060405180910390a16001925050509a9950505050505050505050565b600060608060008060008060056000896000191660001916815260200190815260200160002060000154600560008a60001916600019168152602001908152602001600020600901600560008b60001916600019168152602001908152602001600020600e01600560008c6000191660001916815260200190815260200160002060010154600560008d6000191660001916815260200190815260200160002060020154600560008e6000191660001916815260200190815260200160002060030160009054906101000a900473ffffffffffffffffffffffffffffffffffffffff16600560008f600019166000191681526020019081526020016000206004015485805480602002602001604051908101604052809291908181526020018280548015611c7d57602002820191906000526020600020905b81546000191681526020019060010190808311611c65575b5050505050955084805480602002602001604051908101604052809291908181526020018280548015611cd357602002820191906000526020600020905b81546000191681526020019060010190808311611cbb575b505050505094509650965096509650965096509650919395979092949650565b600460009054906101000a900473ffffffffffffffffffffffffffffffffffffffff1681565b60006040805190810160405280600781526020017f706172746e657200000000000000000000000000000000000000000000000000815250611d5b3382611002565b60007f010000000000000000000000000000000000000000000000000000000000000002846000602081101515611d8e57fe5b1a7f0100000000000000000000000000000000000000000000000000000000000000027effffffffffffffffffffffffffffffffffffffffffffffffffffffffffffff191614151515611de057600080fd5b60006005600086600019166000191681526020019081526020016000206004015414151515611e0e57600080fd5b600073ffffffffffffffffffffffffffffffffffffffff168373ffffffffffffffffffffffffffffffffffffffff1614151515611e4a57600080fd5b600060056000866000191660001916815260200190815260200160002060100160007f61636164656d696300000000000000000000000000000000000000000000000060001916815260200190815260200160002060008573ffffffffffffffffffffffffffffffffffffffff1673ffffffffffffffffffffffffffffffffffffffff16815260200190815260200160002054141515611ee957600080fd5b600060056000866000191660001916815260200190815260200160002060080160008573ffffffffffffffffffffffffffffffffffffffff1673ffffffffffffffffffffffffffffffffffffffff16815260200190815260200160002054141515611f5357600080fd5b4260056000866000191660001916815260200190815260200160002060080160008573ffffffffffffffffffffffffffffffffffffffff1673ffffffffffffffffffffffffffffffffffffffff168152602001908152602001600020819055507f9f45ee005a96e1a0db65f5eecd0497495a0219adcaef5741b571614b9602754f8484336040518084600019166000191681526020018373ffffffffffffffffffffffffffffffffffffffff1673ffffffffffffffffffffffffffffffffffffffff1681526020018273ffffffffffffffffffffffffffffffffffffffff1673ffffffffffffffffffffffffffffffffffffffff168152602001935050505060405180910390a1600191505092915050565b6040805190810160405280600781526020017f706172746e65720000000000000000000000000000000000000000000000000081525081565b600060056000836000191660001916815260200190815260200160002060030160009054906101000a900473ffffffffffffffffffffffffffffffffffffffff169050919050565b6000600560008360001916600019168152602001908152602001600020600001549050919050565b61214d336040805190810160405280600581526020017f61646d696e000000000000000000000000000000000000000000000000000000815250611002565b612157828261403f565b5050565b6000809054906101000a900473ffffffffffffffffffffffffffffffffffffffff1681565b600080600061228061016d61227260646122646005600260009054906101000a900473ffffffffffffffffffffffffffffffffffffffff1673ffffffffffffffffffffffffffffffffffffffff166318160ddd6040518163ffffffff167c0100000000000000000000000000000000000000000000000000000000028152600401602060405180830381600087803b15801561221b57600080fd5b505af115801561222f573d6000803e3d6000fd5b505050506040513d602081101561224557600080fd5b8101908080519060200190929190505050613fe990919063ffffffff16565b61402490919063ffffffff16565b61402490919063ffffffff16565b9150600360009054906101000a900473ffffffffffffffffffffffffffffffffffffffff1673ffffffffffffffffffffffffffffffffffffffff1663a01b00a26040518163ffffffff167c0100000000000000000000000000000000000000000000000000000000028152600401602060405180830381600087803b15801561230857600080fd5b505af115801561231c573d6000803e3d6000fd5b505050506040513d602081101561233257600080fd5b8101908080519060200190929190505050905061236a61235b828461402490919063ffffffff16565b85613fe990919063ffffffff16565b92505050919050565b60006005600083600019166000191681526020019081526020016000206002015460056000846000191660001916815260200190815260200160002060010154019050919050565b6000600560008460001916600019168152602001908152602001600020600b016000836000191660001916815260200190815260200160002054905092915050565b6000600560008360001916600019168152602001908152602001600020600201549050919050565b60006040805190810160405280600781526020017f706172746e6572000000000000000000000000000000000000000000000000008152506124673382611002565b60007f01000000000000000000000000000000000000000000000000000000000000000285600060208110151561249a57fe5b1a7f0100000000000000000000000000000000000000000000000000000000000000027effffffffffffffffffffffffffffffffffffffffffffffffffffffffffffff1916141515156124ec57600080fd5b6000600560008760001916600019168152602001908152602001600020600401541415151561251a57600080fd5b600073ffffffffffffffffffffffffffffffffffffffff168473ffffffffffffffffffffffffffffffffffffffff161415151561255657600080fd5b600060056000876000191660001916815260200190815260200160002060060160008673ffffffffffffffffffffffffffffffffffffffff1673ffffffffffffffffffffffffffffffffffffffff168152602001908152602001600020541415156125c057600080fd5b7f4e410000000000000000000000000000000000000000000000000000000000008360001916141561286057612633600560008760001916600019168152602001908152602001600020600201546005600088600019166000191681526020019081526020016000206001015401612180565b600260009054906101000a900473ffffffffffffffffffffffffffffffffffffffff1673ffffffffffffffffffffffffffffffffffffffff166370a08231866040518263ffffffff167c0100000000000000000000000000000000000000000000000000000000028152600401808273ffffffffffffffffffffffffffffffffffffffff1673ffffffffffffffffffffffffffffffffffffffff168152602001915050602060405180830381600087803b1580156126f057600080fd5b505af1158015612704573d6000803e3d6000fd5b505050506040513d602081101561271a57600080fd5b81019080805190602001909291905050501015151561273857600080fd5b600260009054906101000a900473ffffffffffffffffffffffffffffffffffffffff1673ffffffffffffffffffffffffffffffffffffffff166379cc6790856127be600560008a6000191660001916815260200190815260200160002060020154600560008b600019166000191681526020019081526020016000206001015401612180565b6040518363ffffffff167c0100000000000000000000000000000000000000000000000000000000028152600401808373ffffffffffffffffffffffffffffffffffffffff1673ffffffffffffffffffffffffffffffffffffffff16815260200182815260200192505050600060405180830381600087803b15801561284357600080fd5b505af1158015612857573d6000803e3d6000fd5b50505050612f78565b6000600460009054906101000a900473ffffffffffffffffffffffffffffffffffffffff1673ffffffffffffffffffffffffffffffffffffffff1663d45c4435856040518263ffffffff167c0100000000000000000000000000000000000000000000000000000000028152600401808260001916600019168152602001915050602060405180830381600087803b1580156128fb57600080fd5b505af115801561290f573d6000803e3d6000fd5b505050506040513d602081101561292557600080fd5b81019080805190602001909291905050501415151561294357600080fd5b7f7075626c69630000000000000000000000000000000000000000000000000000600102600460009054906101000a900473ffffffffffffffffffffffffffffffffffffffff1673ffffffffffffffffffffffffffffffffffffffff16637f2aeea4856040518263ffffffff167c0100000000000000000000000000000000000000000000000000000000028152600401808260001916600019168152602001915050602060405180830381600087803b158015612a0057600080fd5b505af1158015612a14573d6000803e3d6000fd5b505050506040513d6020811015612a2a57600080fd5b810190808051906020019092919050505060001916141515612a4b57600080fd5b6000600460009054906101000a900473ffffffffffffffffffffffffffffffffffffffff1673ffffffffffffffffffffffffffffffffffffffff16636785ce0985876040518363ffffffff167c01000000000000000000000000000000000000000000000000000000000281526004018083600019166000191681526020018273ffffffffffffffffffffffffffffffffffffffff1673ffffffffffffffffffffffffffffffffffffffff16815260200192505050602060405180830381600087803b158015612b1a57600080fd5b505af1158015612b2e573d6000803e3d6000fd5b505050506040513d6020811015612b4457600080fd5b810190808051906020019092919050505014151515612b6257600080fd5b612ba9600560008760001916600019168152602001908152602001600020600201546005600088600019166000191681526020019081526020016000206001015401612180565b600260009054906101000a900473ffffffffffffffffffffffffffffffffffffffff1673ffffffffffffffffffffffffffffffffffffffff166370a08231600460009054906101000a900473ffffffffffffffffffffffffffffffffffffffff1673ffffffffffffffffffffffffffffffffffffffff1663206d54db876040518263ffffffff167c0100000000000000000000000000000000000000000000000000000000028152600401808260001916600019168152602001915050602060405180830381600087803b158015612c8057600080fd5b505af1158015612c94573d6000803e3d6000fd5b505050506040513d6020811015612caa57600080fd5b81019080805190602001909291905050506040518263ffffffff167c0100000000000000000000000000000000000000000000000000000000028152600401808273ffffffffffffffffffffffffffffffffffffffff1673ffffffffffffffffffffffffffffffffffffffff168152602001915050602060405180830381600087803b158015612d3957600080fd5b505af1158015612d4d573d6000803e3d6000fd5b505050506040513d6020811015612d6357600080fd5b810190808051906020019092919050505010151515612d8157600080fd5b600260009054906101000a900473ffffffffffffffffffffffffffffffffffffffff1673ffffffffffffffffffffffffffffffffffffffff166379cc6790600460009054906101000a900473ffffffffffffffffffffffffffffffffffffffff1673ffffffffffffffffffffffffffffffffffffffff1663206d54db866040518263ffffffff167c0100000000000000000000000000000000000000000000000000000000028152600401808260001916600019168152602001915050602060405180830381600087803b158015612e5857600080fd5b505af1158015612e6c573d6000803e3d6000fd5b505050506040513d6020811015612e8257600080fd5b8101908080519060200190929190505050612eda600560008a6000191660001916815260200190815260200160002060020154600560008b600019166000191681526020019081526020016000206001015401612180565b6040518363ffffffff167c0100000000000000000000000000000000000000000000000000000000028152600401808373ffffffffffffffffffffffffffffffffffffffff1673ffffffffffffffffffffffffffffffffffffffff16815260200182815260200192505050600060405180830381600087803b158015612f5f57600080fd5b505af1158015612f73573d6000803e3d6000fd5b505050505b4260056000876000191660001916815260200190815260200160002060060160008673ffffffffffffffffffffffffffffffffffffffff1673ffffffffffffffffffffffffffffffffffffffff16815260200190815260200160002081905550600560008660001916600019168152602001908152602001600020600a018490806001815401808255809150509060018203906000526020600020016000909192909190916101000a81548173ffffffffffffffffffffffffffffffffffffffff021916908373ffffffffffffffffffffffffffffffffffffffff160217905550507fd3856442e256aceae82045cf13ccd3030c8a896aa8605f308aa4c919614b4b848585336040518084600019166000191681526020018373ffffffffffffffffffffffffffffffffffffffff1673ffffffffffffffffffffffffffffffffffffffff1681526020018273ffffffffffffffffffffffffffffffffffffffff1673ffffffffffffffffffffffffffffffffffffffff168152602001935050505060405180910390a160019150509392505050565b61314c336040805190810160405280600581526020017f61646d696e000000000000000000000000000000000000000000000000000000815250611002565b6131568282614190565b5050565b600061318260646131748486613fe990919063ffffffff16565b61402490919063ffffffff16565b905092915050565b60006040805190810160405280600781526020017f706172746e6572000000000000000000000000000000000000000000000000008152506131cc3382611002565b60007f0100000000000000000000000000000000000000000000000000000000000000028560006020811015156131ff57fe5b1a7f0100000000000000000000000000000000000000000000000000000000000000027effffffffffffffffffffffffffffffffffffffffffffffffffffffffffffff19161415151561325157600080fd5b60008473ffffffffffffffffffffffffffffffffffffffff161415151561327757600080fd5b600060056000876000191660001916815260200190815260200160002060040154141515156132a557600080fd5b600060010260056000876000191660001916815260200190815260200160002060070160008673ffffffffffffffffffffffffffffffffffffffff1673ffffffffffffffffffffffffffffffffffffffff168152602001908152602001600020546000191614151561331657600080fd5b600060056000876000191660001916815260200190815260200160002060060160008673ffffffffffffffffffffffffffffffffffffffff1673ffffffffffffffffffffffffffffffffffffffff168152602001908152602001600020541415151561338157600080fd5b60007f0100000000000000000000000000000000000000000000000000000000000000028360006020811015156133b457fe5b1a7f0100000000000000000000000000000000000000000000000000000000000000027effffffffffffffffffffffffffffffffffffffffffffffffffffffffffffff19161415151561340657600080fd5b8260056000876000191660001916815260200190815260200160002060070160008673ffffffffffffffffffffffffffffffffffffffff1673ffffffffffffffffffffffffffffffffffffffff168152602001908152602001600020816000191690555060019150509392505050565b6040805190810160405280600581526020017f61646d696e00000000000000000000000000000000000000000000000000000081525081565b6000600560008360001916600019168152602001908152602001600020600501549050919050565b600360009054906101000a900473ffffffffffffffffffffffffffffffffffffffff1681565b60008060008060006040805190810160405280600781526020017f706172746e6572000000000000000000000000000000000000000000000000008152506135453382611002565b60007f0100000000000000000000000000000000000000000000000000000000000000028c600060208110151561357857fe5b1a7f0100000000000000000000000000000000000000000000000000000000000000027effffffffffffffffffffffffffffffffffffffffffffffffffffffffffffff1916141515156135ca57600080fd5b6000600560008e6000191660001916815260200190815260200160002060040154141515156135f857600080fd5b600073ffffffffffffffffffffffffffffffffffffffff168b73ffffffffffffffffffffffffffffffffffffffff161415151561363457600080fd5b6000600102600560008e6000191660001916815260200190815260200160002060070160008d73ffffffffffffffffffffffffffffffffffffffff1673ffffffffffffffffffffffffffffffffffffffff16815260200190815260200160002054600019161415156136a557600080fd5b6000600560008e60001916600019168152602001908152602001600020600b0160008c60001916600019168152602001908152602001600020541115156136eb57600080fd5b6000600560008e6000191660001916815260200190815260200160002060080160008d73ffffffffffffffffffffffffffffffffffffffff1673ffffffffffffffffffffffffffffffffffffffff1681526020019081526020016000205414151561375557600080fd5b6000600560008e6000191660001916815260200190815260200160002060100160007f61636164656d696300000000000000000000000000000000000000000000000060001916815260200190815260200160002060008d73ffffffffffffffffffffffffffffffffffffffff1673ffffffffffffffffffffffffffffffffffffffff168152602001908152602001600020541415156137f457600080fd5b86600560008e6000191660001916815260200190815260200160002060070160008d73ffffffffffffffffffffffffffffffffffffffff1673ffffffffffffffffffffffffffffffffffffffff16815260200190815260200160002081600019169055506138b7600560008e6000191660001916815260200190815260200160002060010154600560008f60001916600019168152602001908152602001600020600b0160008d600019166000191681526020019081526020016000205461315a565b9450613900600560008e6000191660001916815260200190815260200160002060020154600560008f60001916600019168152602001908152602001600020600c01548b61145d565b9350613949600560008e6000191660001916815260200190815260200160002060020154600560008f60001916600019168152602001908152602001600020600d01548a611407565b925082848601019150600360009054906101000a900473ffffffffffffffffffffffffffffffffffffffff1673ffffffffffffffffffffffffffffffffffffffff1663da1919b38c846040518363ffffffff167c0100000000000000000000000000000000000000000000000000000000028152600401808373ffffffffffffffffffffffffffffffffffffffff1673ffffffffffffffffffffffffffffffffffffffff16815260200182815260200192505050600060405180830381600087803b158015613a1757600080fd5b505af1158015613a2b573d6000803e3d6000fd5b50505050600360009054906101000a900473ffffffffffffffffffffffffffffffffffffffff1673ffffffffffffffffffffffffffffffffffffffff1663da1919b3600560008f6000191660001916815260200190815260200160002060030160009054906101000a900473ffffffffffffffffffffffffffffffffffffffff16846040518363ffffffff167c0100000000000000000000000000000000000000000000000000000000028152600401808373ffffffffffffffffffffffffffffffffffffffff1673ffffffffffffffffffffffffffffffffffffffff16815260200182815260200192505050600060405180830381600087803b158015613b3257600080fd5b505af1158015613b46573d6000803e3d6000fd5b50505050600560008d60001916600019168152602001908152602001600020600b0160008b6000191660001916815260200190815260200160002054600560008e6000191660001916815260200190815260200160002060100160007f61636164656d696300000000000000000000000000000000000000000000000060001916815260200190815260200160002060008d73ffffffffffffffffffffffffffffffffffffffff1673ffffffffffffffffffffffffffffffffffffffff1681526020019081526020016000208190555088600560008e6000191660001916815260200190815260200160002060100160007f656e676167656d656e740000000000000000000000000000000000000000000060001916815260200190815260200160002060008d73ffffffffffffffffffffffffffffffffffffffff1673ffffffffffffffffffffffffffffffffffffffff1681526020019081526020016000208190555087600560008e6000191660001916815260200190815260200160002060100160007f636f6d6d69746d656e740000000000000000000000000000000000000000000060001916815260200190815260200160002060008d73ffffffffffffffffffffffffffffffffffffffff1673ffffffffffffffffffffffffffffffffffffffff168152602001908152602001600020819055507f02856995b878bbe3391dbb6ee0435533dca0cbba6a16cf9c170f095f48a709808c8c8c888888336040518088600019166000191681526020018773ffffffffffffffffffffffffffffffffffffffff1673ffffffffffffffffffffffffffffffffffffffff16815260200186600019166000191681526020018581526020018481526020018381526020018273ffffffffffffffffffffffffffffffffffffffff1673ffffffffffffffffffffffffffffffffffffffff16815260200197505050505050505060405180910390a16001955050505050509695505050505050565b6000809054906101000a900473ffffffffffffffffffffffffffffffffffffffff1673ffffffffffffffffffffffffffffffffffffffff163373ffffffffffffffffffffffffffffffffffffffff16141515613e7d57600080fd5b600073ffffffffffffffffffffffffffffffffffffffff168173ffffffffffffffffffffffffffffffffffffffff1614151515613eb957600080fd5b8073ffffffffffffffffffffffffffffffffffffffff166000809054906101000a900473ffffffffffffffffffffffffffffffffffffffff1673ffffffffffffffffffffffffffffffffffffffff167f8be0079c531659141344cd1fd0a4f28419497f9722a3daafe3b4186f6b6457e060405160405180910390a3806000806101000a81548173ffffffffffffffffffffffffffffffffffffffff021916908373ffffffffffffffffffffffffffffffffffffffff16021790555050565b613f818282613f90565b1515613f8c57600080fd5b5050565b60008260000160008373ffffffffffffffffffffffffffffffffffffffff1673ffffffffffffffffffffffffffffffffffffffff16815260200190815260200160002060009054906101000a900460ff16905092915050565b6000806000841415613ffe576000915061401d565b828402905082848281151561400f57fe5b0414151561401957fe5b8091505b5092915050565b600080828481151561403257fe5b0490508091505092915050565b6140bc826001836040518082805190602001908083835b60208310151561407b5780518252602082019150602081019050602083039250614056565b6001836020036101000a03801982511681845116808217855250505050505090500191505090815260200160405180910390206142e190919063ffffffff16565b7fd211483f91fc6eff862467f8de606587a30c8fc9981056f051b897a418df803a8282604051808373ffffffffffffffffffffffffffffffffffffffff1673ffffffffffffffffffffffffffffffffffffffff16815260200180602001828103825283818151815260200191508051906020019080838360005b83811015614151578082015181840152602081019050614136565b50505050905090810190601f16801561417e5780820380516001836020036101000a031916815260200191505b50935050505060405180910390a15050565b61420d826001836040518082805190602001908083835b6020831015156141cc57805182526020820191506020810190506020830392506141a7565b6001836020036101000a038019825116818451168082178552505050505050905001915050908152602001604051809103902061433f90919063ffffffff16565b7fbfec83d64eaa953f2708271a023ab9ee82057f8f3578d548c1a4ba0b5b7004898282604051808373ffffffffffffffffffffffffffffffffffffffff1673ffffffffffffffffffffffffffffffffffffffff16815260200180602001828103825283818151815260200191508051906020019080838360005b838110156142a2578082015181840152602081019050614287565b50505050905090810190601f1680156142cf5780820380516001836020036101000a031916815260200191505b50935050505060405180910390a15050565b60008260000160008373ffffffffffffffffffffffffffffffffffffffff1673ffffffffffffffffffffffffffffffffffffffff16815260200190815260200160002060006101000a81548160ff0219169083151502179055505050565b60018260000160008373ffffffffffffffffffffffffffffffffffffffff1673ffffffffffffffffffffffffffffffffffffffff16815260200190815260200160002060006101000a81548160ff0219169083151502179055505050565b8280548282559060005260206000209081019282156143df579160200282015b828111156143de5782518290600019169055916020019190600101906143bd565b5b5090506143ec91906143f0565b5090565b61441291905b8082111561440e5760008160009055506001016143f6565b5090565b905600a165627a7a723058207b70b5ef8abfa7caa841edb027794157e3ed5ae9fcc759abfa09eefb583eecda0029",
  "source": "pragma solidity ^0.4.23;\n\nimport \"./CollectionBasic.sol\";\nimport \"../KarmaCoin.sol\";\nimport \"../GyanCoin.sol\";\nimport \"../ScholarshipContract.sol\";\nimport \"../ownership/rbac/RBAC.sol\";\n\n/**\n * @title BaseCollection\n * @author Aakash Bansal @ one0x Inc.\n * @dev Basic version of collection contract\n * @dev Handled collection create, joining and assessment\n */\ncontract BaseCollection is CollectionBasic, PbOwnable, RBAC {\n\n\tusing SafeMath for uint256;\n\n\tKarmaCoin public karmaCoin;\n\tGyanCoin public gyanCoin;\n\tScholarshipContract public scholarshipContract;\n\n\tstruct Collection {\n\t\tbytes32 _type;\n\t\tuint256 academicGyan;\n\t\tuint256 nonAcademicGyan;\n\t\taddress teacher;\n\t\tuint256 timestamp;\n\t\tuint256 learningHours;\n\t\tmapping(address => uint256) participants;\n\t\tmapping(address => bytes32) hash;\n\t\tmapping(address => uint256) droppedParticipants;\n\t\tbytes32[] topics;\n\t\taddress[] participantIndex;\n\t\tmapping(bytes32 => uint256) assessmentRules;\n\t\tuint256 engagementRule;\n\t\tuint256 commitmentRule;\n\t\tbytes32[] assessmentRuleKeys;\n\t\tuint256[] assessmentRuleValues;\n\t\tmapping(bytes32 => mapping(address => uint256)) results;\n\t}\n\n\tmapping(bytes32 => Collection) collections;\n\n\tevent CollectionCreate(bytes32 _id, bytes32 _type, address pbNode);\n\tevent CollectionJoin(bytes32 _id, address _participantAddress, address pbNode);\n\tevent CollectionAssess(bytes32 _id, address _participantAddress, bytes32 _assessmentResult, uint256 academicGyan, uint256 engagementGyan, uint256 commitmentGyan, address pbNode);\n\tevent CollectionDrop(bytes32 _id, address _participantAddress, address pbNode);\n\n\tfunction BaseCollection(KarmaCoin _karma, GyanCoin _gyan, ScholarshipContract _scholarships) {\n\t\trequire(_karma != address(0));\n\t\trequire(_gyan != address(0));\n\t\trequire(_scholarships != address(0));\n\n\t\tkarmaCoin = _karma;\n\t\tgyanCoin = _gyan;\n\t\tscholarshipContract = _scholarships;\n\n\t}\n\n\tfunction create(bytes32 _id, address _teacherAddress, bytes32 _type, uint256 _learningHours, uint256 _academicGyan, uint256 _nonAcademicGyan, bytes32[] _assessmentRuleKeys, uint256[] _assessmentRuleValues, uint256[] _nonAcademicRules, bytes32[] _topics) public onlyRole(ROLE_PARTNER) returns (bool) {\n\t\trequire(_id[0] != 0);\n\t\trequire(collections[_id].timestamp == 0);\n\t\trequire(_teacherAddress != address(0));\n\t\trequire(_type[0] != 0);\n\t\trequire(_academicGyan > 0);\n\t\trequire(_nonAcademicGyan > 0);\n\t\trequire(_topics.length > 0);\n\t\trequire(_learningHours > 0);\n\t\trequire(_assessmentRuleKeys.length == _assessmentRuleValues.length);\n\t\trequire(_academicGyan + _nonAcademicGyan <= gyanCoin.fixedBalanceOf(_teacherAddress) || _academicGyan + _nonAcademicGyan == _learningHours);\n\n\t\tcollections[_id].teacher = _teacherAddress;\n\t\tcollections[_id]._type = _type;\n\t\tcollections[_id].academicGyan = _academicGyan;\n\t\tcollections[_id].nonAcademicGyan = _nonAcademicGyan;\n\t\tcollections[_id].timestamp = now;\n\t\tcollections[_id].topics = _topics;\n\t\tcollections[_id].learningHours = _learningHours;\n\t\tcollections[_id].engagementRule = _nonAcademicRules[0];\n\t\tcollections[_id].commitmentRule = _nonAcademicRules[1];\n\t\t// Map _assessmentRules array to contract variables\n\t\tfor (uint i = 0; i < _assessmentRuleKeys.length; i++) {\n\t\t\tcollections[_id].assessmentRules[_assessmentRuleKeys[i]] = _assessmentRuleValues[i];\n\t\t\tcollections[_id].assessmentRuleKeys.push(_assessmentRuleKeys[i]);\n\t\t}\n\t\tCollectionCreate(_id, _type, msg.sender);\n\t\treturn true;\n\t}\n\n\tfunction addHash(bytes32 _id, address _participantAddress, bytes32 _hash) public onlyRole(ROLE_PARTNER) returns (bool) {\n\t\trequire(_id[0] != 0);\n\t\trequire(_participantAddress != 0);\n\t\trequire(collections[_id].timestamp != 0);\n\t\trequire(collections[_id].hash[_participantAddress] == 0);\n\t\trequire(collections[_id].participants[_participantAddress] != 0);\n\t\trequire(_hash[0] != 0);\n\n\t\tcollections[_id].hash[_participantAddress] = _hash;\n\t\treturn true;\n\t}\n\n\tfunction getData(bytes32 _id) public view returns (bytes32, bytes32[], bytes32[], uint256, uint256, address, uint256) {\n\t\t// Solidity does not yet support returning structs to web3\n\t\treturn (collections[_id]._type, collections[_id].topics, collections[_id].assessmentRuleKeys, collections[_id].academicGyan, collections[_id].nonAcademicGyan , collections[_id].teacher, collections[_id].timestamp);\n\t}\n\n\tfunction getTeacher(bytes32 _id) public view returns (address) {\n\t\treturn collections[_id].teacher;\n\t}\n\n\tfunction getHashOf(bytes32 _id, address _participantAddress) public view returns (bytes32) {\n\t\treturn collections[_id].hash[_participantAddress];\n\t}\n\n\tfunction getLearningHours(bytes32 _id) public view returns (uint256) {\n\t\treturn collections[_id].learningHours;\n\t}\n\n\tfunction getGyan(bytes32 _id) public view returns (uint256) {\n\t\treturn (collections[_id].academicGyan + collections[_id].nonAcademicGyan);\n\t}\n\n\tfunction getAcademicGyan(bytes32 _id) public view returns (uint256) {\n\t\treturn collections[_id].academicGyan;\n\t}\n\n\tfunction getNonAcademicGyan(bytes32 _id) public view returns (uint256) {\n\t\treturn collections[_id].nonAcademicGyan;\n\t}\n\n\tfunction getType(bytes32 _id) public view returns (bytes32) {\n\t\treturn collections[_id]._type;\n\t}\n\n\tfunction getParticipants(bytes32 _id) public view returns (address[]) {\n\t\treturn collections[_id].participantIndex;\n\t}\n\n\tfunction getResultOf(bytes32 _id, address _participantAddress) public view returns (uint256, uint256, uint256) {\n\t\treturn (collections[_id].results['academic'][_participantAddress], collections[_id].results['engagement'][_participantAddress], collections[_id].results['commitment'][_participantAddress]);\n\t}\n\n\tfunction getAssessmentValueOf(bytes32 _id, bytes32 _assessmentRule) public view returns (uint256) {\n\t\treturn collections[_id].assessmentRules[_assessmentRule];\n\t}\n\n\tfunction join(bytes32 _id, address _participantAddress, bytes32 _scholarshipId) public onlyRole(ROLE_PARTNER) returns (bool) {\n\t\trequire(_id[0] != 0);\n\t\trequire(collections[_id].timestamp != 0);\n\t\trequire(_participantAddress != address(0));\n\t\t// Make sure this participant does not already exist for this collection\n\t\trequire(collections[_id].participants[_participantAddress] == 0);\n\n\t\tif (_scholarshipId == 'NA') {\n\t\t\t// Burn from student wallet\n\t\t\trequire(karmaCoin.balanceOf(_participantAddress) >= getKarmaToBurn(collections[_id].academicGyan + collections[_id].nonAcademicGyan));\n\t\t\tkarmaCoin.burnFrom(_participantAddress, getKarmaToBurn(collections[_id].academicGyan + collections[_id].nonAcademicGyan));\n\t\t} else {\n\t\t\trequire(scholarshipContract.getTimestamp(_scholarshipId) != 0);\n\t\t\trequire(scholarshipContract.getType(_scholarshipId) == 0x7075626c69630000000000000000000000000000000000000000000000000000);   // check if scholarship is public\n\t\t\trequire(scholarshipContract.getParticipant(_scholarshipId, _participantAddress) != 0);\n\t\t\trequire(karmaCoin.balanceOf(scholarshipContract.getWalletAddress(_scholarshipId)) >= getKarmaToBurn(collections[_id].academicGyan + collections[_id].nonAcademicGyan)); // this scholarship has enough karma balance\n\t\t\t// Burn from scholarship wallet\n\t\t\tkarmaCoin.burnFrom(scholarshipContract.getWalletAddress(_scholarshipId), getKarmaToBurn(collections[_id].academicGyan + collections[_id].nonAcademicGyan));\n\t\t}\n\t\tcollections[_id].participants[_participantAddress] = now;\n\t\tcollections[_id].participantIndex.push(_participantAddress);\n\t\tCollectionJoin(_id, _participantAddress, msg.sender);\n\t\treturn true;\n\t}\n\n\tfunction drop(bytes32 _id, address _participantAddress) public onlyRole(ROLE_PARTNER) returns (bool) {\n\t\trequire(_id[0] != 0);\n\t\trequire(collections[_id].timestamp != 0);\n\t\trequire(_participantAddress != address(0));\n\t\t// Verify that the participant has not been assessed yet. Participants cannot drop after they have been assessed.\n\t\trequire(collections[_id].results['academic'][_participantAddress] == 0);\n\t\trequire(collections[_id].droppedParticipants[_participantAddress] == 0);\n\n\t\tcollections[_id].droppedParticipants[_participantAddress] = now;\n\t\tCollectionDrop(_id, _participantAddress, msg.sender);\n\t\treturn true;\n\t}\n\n\tfunction assess(bytes32 _id, address _participantAddress, bytes32 _assessmentRule, uint256 _engagementPercent, uint256 _commitmentPercent, bytes32 _hash) public onlyRole(ROLE_PARTNER) returns (bool) {\n\t\trequire(_id[0] != 0);\n\t\trequire(collections[_id].timestamp != 0);\n\t\trequire(_participantAddress != address(0));\n\t\trequire(collections[_id].hash[_participantAddress] == 0); // the hash for this collection has not been saved before\n\t\trequire(collections[_id].assessmentRules[_assessmentRule] > 0);\n\t\t// Verify the participant being assessed has not been dropped previously.\n\t\trequire(collections[_id].droppedParticipants[_participantAddress] == 0);\n\t\t// Verify the participant was not assessed previously\n\t\trequire(collections[_id].results['academic'][_participantAddress] == 0);\n\n\t\t// Save the hash for this participant\n\t\tcollections[_id].hash[_participantAddress] = _hash;\n\n\t\t// Add Gyan to participant and teacher wallets on assessment\n\t\tuint256 assessedAcademicGyan = getAssessedAcademicGyan(collections[_id].academicGyan, collections[_id].assessmentRules[_assessmentRule]);\n\t\tuint256 assessedEngagementGyan = getAssessedEngagementGyan(collections[_id].nonAcademicGyan, collections[_id].engagementRule, _engagementPercent);\n\t\tuint256 assessedCommitmentGyan = getAssessedCommitmentGyan(collections[_id].nonAcademicGyan, collections[_id].commitmentRule, _commitmentPercent);\n\t\tuint256 totalGyanEarned = assessedAcademicGyan + assessedEngagementGyan + assessedCommitmentGyan;\n\t\tgyanCoin.mintFor(_participantAddress, totalGyanEarned);\n\t\tgyanCoin.mintFor(collections[_id].teacher, totalGyanEarned);\n\t\tcollections[_id].results['academic'][_participantAddress] = collections[_id].assessmentRules[_assessmentRule];\n\t\tcollections[_id].results['engagement'][_participantAddress] = _engagementPercent;\n\t\tcollections[_id].results['commitment'][_participantAddress] = _commitmentPercent;\n\t\tCollectionAssess(_id, _participantAddress, _assessmentRule, assessedAcademicGyan, assessedEngagementGyan, assessedCommitmentGyan, msg.sender);\n\t\treturn true;\n\t}\n\n\t// Pure functions\n\n\tfunction getKarmaToBurn(uint256 _gyan) public view returns (uint256) {\n\t\t//TODO : put logic here to dynamically calculate Karma value based on gyan\n\t\tuint256 dailyKarmaMint = (karmaCoin.totalSupply().mul(5).div(100)).div(365);\n\t\tuint256 dailyGyanEarn = gyanCoin.yesterdayMint();\n\t\treturn _gyan.mul(dailyKarmaMint.div(dailyGyanEarn));\n\t}\n\n\tfunction getAssessedAcademicGyan(uint256 _totalAcademicGyan, uint256 _percentGyan) pure returns (uint256) {\n\t\treturn (_totalAcademicGyan.mul(_percentGyan)).div(100);\n\t}\n\n\tfunction getAssessedEngagementGyan(uint256 _totalNonAcademicGyan, uint256 _engagementRule, uint256 _percentGyan) pure returns (uint256) {\n\t\treturn (_totalNonAcademicGyan.mul(_engagementRule).div(100).mul(_percentGyan)).div(100);\n\t}\n\n\tfunction getAssessedCommitmentGyan(uint256 _totalNonAcademicGyan, uint256 _commitmentRule, uint256 _percentGyan) pure returns (uint256) {\n\t\treturn (_totalNonAcademicGyan.mul(_commitmentRule).div(100).mul(_percentGyan)).div(100);\n\t}\n\n}\n",
  "sourcePath": "/Users/aakash/WebstormProjects/pbether/contracts/Collection/BaseCollection.sol",
  "compiler": {
    "name": "solc",
    "version": "0.4.23+commit.124ca40d.Emscripten.clang"
  },
  "schemaVersion": "2.0.0",
  "updatedAt": "2018-06-27T18:43:28.111Z"
}