{
  "contractName": "GyanCoin",
  "abi": [
    {
      "constant": true,
      "inputs": [],
      "name": "name",
      "outputs": [
        {
          "name": "",
          "type": "string"
        }
      ],
      "payable": false,
      "stateMutability": "view",
      "type": "function"
    },
    {
      "constant": true,
      "inputs": [],
      "name": "karmaCoin",
      "outputs": [
        {
          "name": "",
          "type": "address"
        }
      ],
      "payable": false,
      "stateMutability": "view",
      "type": "function"
    },
    {
      "constant": true,
      "inputs": [],
      "name": "decimals",
      "outputs": [
        {
          "name": "",
          "type": "uint8"
        }
      ],
      "payable": false,
      "stateMutability": "view",
      "type": "function"
    },
    {
      "constant": true,
      "inputs": [],
      "name": "symbol",
      "outputs": [
        {
          "name": "",
          "type": "string"
        }
      ],
      "payable": false,
      "stateMutability": "view",
      "type": "function"
    },
    {
      "inputs": [
        {
          "name": "_karma",
          "type": "address"
        }
      ],
      "payable": false,
      "stateMutability": "nonpayable",
      "type": "constructor"
    },
    {
      "constant": true,
      "inputs": [],
      "name": "yesterdayMint",
      "outputs": [
        {
          "name": "",
          "type": "uint256"
        }
      ],
      "payable": false,
      "stateMutability": "view",
      "type": "function"
    },
    {
      "constant": true,
      "inputs": [],
      "name": "totalSupply",
      "outputs": [
        {
          "name": "",
          "type": "uint256"
        }
      ],
      "payable": false,
      "stateMutability": "view",
      "type": "function"
    },
    {
      "constant": false,
      "inputs": [
        {
          "name": "_to",
          "type": "address"
        },
        {
          "name": "_amount",
          "type": "uint256"
        }
      ],
      "name": "mintFor",
      "outputs": [],
      "payable": false,
      "stateMutability": "nonpayable",
      "type": "function"
    },
    {
      "constant": true,
      "inputs": [],
      "name": "dailyKarmaMint",
      "outputs": [
        {
          "name": "dailyMint",
          "type": "uint256"
        }
      ],
      "payable": false,
      "stateMutability": "view",
      "type": "function"
    },
    {
      "constant": true,
      "inputs": [],
      "name": "averageDailyPeers",
      "outputs": [
        {
          "name": "averagePeers",
          "type": "uint256"
        }
      ],
      "payable": false,
      "stateMutability": "view",
      "type": "function"
    },
    {
      "constant": true,
      "inputs": [
        {
          "name": "owner",
          "type": "address"
        }
      ],
      "name": "potentialKarmaReward",
      "outputs": [
        {
          "name": "",
          "type": "uint256"
        }
      ],
      "payable": false,
      "stateMutability": "view",
      "type": "function"
    },
    {
      "constant": true,
      "inputs": [
        {
          "name": "_owner",
          "type": "address"
        }
      ],
      "name": "floatingBalanceOf",
      "outputs": [
        {
          "name": "balance",
          "type": "uint256"
        }
      ],
      "payable": false,
      "stateMutability": "view",
      "type": "function"
    },
    {
      "constant": true,
      "inputs": [
        {
          "name": "_owner",
          "type": "address"
        }
      ],
      "name": "fixedBalanceOf",
      "outputs": [
        {
          "name": "balance",
          "type": "uint256"
        }
      ],
      "payable": false,
      "stateMutability": "view",
      "type": "function"
    }
  ],
  "bytecode": "0x60806040526040805190810160405280600481526020017f4759414e00000000000000000000000000000000000000000000000000000000815250600090805190602001906200005192919062000191565b506040805190810160405280600381526020017f47594e0000000000000000000000000000000000000000000000000000000000815250600190805190602001906200009f92919062000191565b506012600260006101000a81548160ff021916908360ff160217905550348015620000c957600080fd5b50604051602080620016a583398101806040528101908080519060200190929190505050600073ffffffffffffffffffffffffffffffffffffffff168173ffffffffffffffffffffffffffffffffffffffff16141515156200012a57600080fd5b80600a60006101000a81548173ffffffffffffffffffffffffffffffffffffffff021916908373ffffffffffffffffffffffffffffffffffffffff160217905550426005819055504260068190555060016007819055506103e86003819055505062000240565b828054600181600116156101000203166002900490600052602060002090601f016020900481019282601f10620001d457805160ff191683800117855562000205565b8280016001018555821562000205579182015b8281111562000204578251825591602001919060010190620001e7565b5b50905062000214919062000218565b5090565b6200023d91905b80821115620002395760008160009055506001016200021f565b5090565b90565b61145580620002506000396000f3006080604052600436106100ba576000357c0100000000000000000000000000000000000000000000000000000000900463ffffffff16806306fdde03146100bf57806318160ddd1461014f57806318de998f1461017a578063313ce567146101d1578063368e4a8014610202578063598ec8e31461022d57806378eb0202146102845780638f74c6ac146102db57806395d89b4114610332578063a01b00a2146103c2578063da1919b3146103ed578063ddd5a3001461043a575b600080fd5b3480156100cb57600080fd5b506100d4610465565b6040518080602001828103825283818151815260200191508051906020019080838360005b838110156101145780820151818401526020810190506100f9565b50505050905090810190601f1680156101415780820380516001836020036101000a031916815260200191505b509250505060405180910390f35b34801561015b57600080fd5b50610164610503565b6040518082815260200191505060405180910390f35b34801561018657600080fd5b5061018f61050d565b604051808273ffffffffffffffffffffffffffffffffffffffff1673ffffffffffffffffffffffffffffffffffffffff16815260200191505060405180910390f35b3480156101dd57600080fd5b506101e6610533565b604051808260ff1660ff16815260200191505060405180910390f35b34801561020e57600080fd5b50610217610546565b6040518082815260200191505060405180910390f35b34801561023957600080fd5b5061026e600480360381019080803573ffffffffffffffffffffffffffffffffffffffff169060200190929190505050610648565b6040518082815260200191505060405180910390f35b34801561029057600080fd5b506102c5600480360381019080803573ffffffffffffffffffffffffffffffffffffffff16906020019092919050505061075a565b6040518082815260200191505060405180910390f35b3480156102e757600080fd5b5061031c600480360381019080803573ffffffffffffffffffffffffffffffffffffffff1690602001909291905050506107a6565b6040518082815260200191505060405180910390f35b34801561033e57600080fd5b506103476107f2565b6040518080602001828103825283818151815260200191508051906020019080838360005b8381101561038757808201518184015260208101905061036c565b50505050905090810190601f1680156103b45780820380516001836020036101000a031916815260200191505b509250505060405180910390f35b3480156103ce57600080fd5b506103d7610890565b6040518082815260200191505060405180910390f35b3480156103f957600080fd5b50610438600480360381019080803573ffffffffffffffffffffffffffffffffffffffff1690602001909291908035906020019092919050505061089a565b005b34801561044657600080fd5b5061044f611233565b6040518082815260200191505060405180910390f35b60008054600181600116156101000203166002900480601f0160208091040260200160405190810160405280929190818152602001828054600181600116156101000203166002900480156104fb5780601f106104d0576101008083540402835291602001916104fb565b820191906000526020600020905b8154815290600101906020018083116104de57829003601f168201915b505050505081565b6000600b54905090565b600a60009054906101000a900473ffffffffffffffffffffffffffffffffffffffff1681565b600260009054906101000a900460ff1681565b600061064361016d61063560646106276005600a60009054906101000a900473ffffffffffffffffffffffffffffffffffffffff1673ffffffffffffffffffffffffffffffffffffffff166318160ddd6040518163ffffffff167c0100000000000000000000000000000000000000000000000000000000028152600401602060405180830381600087803b1580156105de57600080fd5b505af11580156105f2573d6000803e3d6000fd5b505050506040513d602081101561060857600080fd5b81019080805190602001909291905050506112fb90919063ffffffff16565b61133690919063ffffffff16565b61133690919063ffffffff16565b905090565b60008060008060009250600191505b60078211151561074f576106d96003546106cb60646008600087815260200190815260200160002060008a73ffffffffffffffffffffffffffffffffffffffff1673ffffffffffffffffffffffffffffffffffffffff168152602001908152602001600020546112fb90919063ffffffff16565b61133690919063ffffffff16565b9050610740610731606461072384610715606461070760416106f9610546565b6112fb90919063ffffffff16565b61133690919063ffffffff16565b6112fb90919063ffffffff16565b61133690919063ffffffff16565b8461135190919063ffffffff16565b92508180600101925050610657565b829350505050919050565b6000600c60008373ffffffffffffffffffffffffffffffffffffffff1673ffffffffffffffffffffffffffffffffffffffff168152602001908152602001600020600101549050919050565b6000600c60008373ffffffffffffffffffffffffffffffffffffffff1673ffffffffffffffffffffffffffffffffffffffff168152602001908152602001600020600001549050919050565b60018054600181600116156101000203166002900480601f0160208091040260200160405190810160405280929190818152602001828054600181600116156101000203166002900480156108885780601f1061085d57610100808354040283529160200191610888565b820191906000526020600020905b81548152906001019060200180831161086b57829003601f168201915b505050505081565b6000600354905090565b600080600060086000600754815260200190815260200160002060008673ffffffffffffffffffffffffffffffffffffffff1673ffffffffffffffffffffffffffffffffffffffff1681526020019081526020016000205414156109cd578260086000600754815260200190815260200160002060008673ffffffffffffffffffffffffffffffffffffffff1673ffffffffffffffffffffffffffffffffffffffff168152602001908152602001600020819055506009600060075481526020019081526020016000208490806001815401808255809150509060018203906000526020600020016000909192909190916101000a81548173ffffffffffffffffffffffffffffffffffffffff021916908373ffffffffffffffffffffffffffffffffffffffff16021790555050610a89565b610a328360086000600754815260200190815260200160002060008773ffffffffffffffffffffffffffffffffffffffff1673ffffffffffffffffffffffffffffffffffffffff1681526020019081526020016000205461135190919063ffffffff16565b60086000600754815260200190815260200160002060008673ffffffffffffffffffffffffffffffffffffffff1673ffffffffffffffffffffffffffffffffffffffff168152602001908152602001600020819055505b610a9e83600b5461135190919063ffffffff16565b600b81905550610af983600c60008773ffffffffffffffffffffffffffffffffffffffff1673ffffffffffffffffffffffffffffffffffffffff1681526020019081526020016000206001015461135190919063ffffffff16565b600c60008673ffffffffffffffffffffffffffffffffffffffff1673ffffffffffffffffffffffffffffffffffffffff16815260200190815260200160002060010181905550600c60008573ffffffffffffffffffffffffffffffffffffffff1673ffffffffffffffffffffffffffffffffffffffff168152602001908152602001600020600201429080600181540180825580915050906001820390600052602060002001600090919290919091505550610bc08360045461135190919063ffffffff16565b600481905550603c600554014210151561122d57426005819055506004546003819055506000600481905550610c02600160075461135190919063ffffffff16565b6007819055506101a46006540142101515610c27574260068190555060016007819055505b600091505b6009600060075481526020019081526020016000208054905082101561120b57610ccb600354610cbd6064610caf60096000600754815260200190815260200160002087815481101515610c7c57fe5b9060005260206000200160009054906101000a900473ffffffffffffffffffffffffffffffffffffffff1660075461136f565b6112fb90919063ffffffff16565b61133690919063ffffffff16565b9050600a60009054906101000a900473ffffffffffffffffffffffffffffffffffffffff1673ffffffffffffffffffffffffffffffffffffffff1663da1919b360096000600754815260200190815260200160002084815481101515610d2d57fe5b9060005260206000200160009054906101000a900473ffffffffffffffffffffffffffffffffffffffff16610dab6064610d9d86610d8f6064610d816041610d73610546565b6112fb90919063ffffffff16565b61133690919063ffffffff16565b6112fb90919063ffffffff16565b61133690919063ffffffff16565b6040518363ffffffff167c0100000000000000000000000000000000000000000000000000000000028152600401808373ffffffffffffffffffffffffffffffffffffffff1673ffffffffffffffffffffffffffffffffffffffff16815260200182815260200192505050600060405180830381600087803b158015610e3057600080fd5b505af1158015610e44573d6000803e3d6000fd5b50505050610f40610ea360096000600754815260200190815260200160002084815481101515610e7057fe5b9060005260206000200160009054906101000a900473ffffffffffffffffffffffffffffffffffffffff1660075461136f565b600c600060096000600754815260200190815260200160002086815481101515610ec957fe5b9060005260206000200160009054906101000a900473ffffffffffffffffffffffffffffffffffffffff1673ffffffffffffffffffffffffffffffffffffffff1673ffffffffffffffffffffffffffffffffffffffff1681526020019081526020016000206000015461135190919063ffffffff16565b600c600060096000600754815260200190815260200160002085815481101515610f6657fe5b9060005260206000200160009054906101000a900473ffffffffffffffffffffffffffffffffffffffff1673ffffffffffffffffffffffffffffffffffffffff1673ffffffffffffffffffffffffffffffffffffffff168152602001908152602001600020600001819055506110ca61102d60096000600754815260200190815260200160002084815481101515610ffa57fe5b9060005260206000200160009054906101000a900473ffffffffffffffffffffffffffffffffffffffff1660075461136f565b600c60006009600060075481526020019081526020016000208681548110151561105357fe5b9060005260206000200160009054906101000a900473ffffffffffffffffffffffffffffffffffffffff1673ffffffffffffffffffffffffffffffffffffffff1673ffffffffffffffffffffffffffffffffffffffff168152602001908152602001600020600101546113ca90919063ffffffff16565b600c6000600960006007548152602001908152602001600020858154811015156110f057fe5b9060005260206000200160009054906101000a900473ffffffffffffffffffffffffffffffffffffffff1673ffffffffffffffffffffffffffffffffffffffff1673ffffffffffffffffffffffffffffffffffffffff1681526020019081526020016000206001018190555060086000600754815260200190815260200160002060006009600060075481526020019081526020016000208481548110151561119557fe5b9060005260206000200160009054906101000a900473ffffffffffffffffffffffffffffffffffffffff1673ffffffffffffffffffffffffffffffffffffffff1673ffffffffffffffffffffffffffffffffffffffff168152602001908152602001600020600090558180600101925050610c2c565b600960006007548152602001908152602001600020600061122c91906113e3565b5b50505050565b60006112f6600760096000600781526020019081526020016000208054905060096000600681526020019081526020016000208054905060096000600581526020019081526020016000208054905060096000600481526020019081526020016000208054905060096000600381526020019081526020016000208054905060096000600281526020019081526020016000208054905060096000600181526020019081526020016000208054905001010101010161133690919063ffffffff16565b905090565b6000806000841415611310576000915061132f565b828402905082848281151561132157fe5b0414151561132b57fe5b8091505b5092915050565b600080828481151561134457fe5b0490508091505092915050565b600080828401905083811015151561136557fe5b8091505092915050565b60006008600083815260200190815260200160002060008473ffffffffffffffffffffffffffffffffffffffff1673ffffffffffffffffffffffffffffffffffffffff16815260200190815260200160002054905092915050565b60008282111515156113d857fe5b818303905092915050565b50805460008255906000526020600020908101906114019190611404565b50565b61142691905b8082111561142257600081600090555060010161140a565b5090565b905600a165627a7a72305820dec4832e910e9e305a08254d02cd6c6fdd5052ed93a77cf7a133d4bc0947b1530029",
  "source": "pragma solidity 0.4.23;\n\nimport \"./KarmaCoin.sol\";\n\ncontract GyanCoin {\n\tusing SafeMath for uint256;\n\n\tstring public name = \"GYAN\";\n\tstring public symbol = \"GYN\";\n\tuint8 public decimals = 18;\n\tuint256 _yesterdayMint;\n\tuint256 _todayMint;\n\tuint256 _dailyStartTime;\n\tuint256 _weeklyStartTime;\n\tuint256 _currentDayNumber;\n\tmapping(uint256 => mapping(address => uint256)) dailyPeerBucket;\n\tmapping(uint256 => address[]) dailyPeerArray;\n\n\tKarmaCoin public karmaCoin;\n\n\tuint256 totalSupply_;\n\tstruct Gyan {\n\t\tuint256 fixedBalance;\n\t\tuint256 floatingBalance;\n\t\tuint256[] timestampIndex;\n\t\tuint256 timestamp;\n\t}\n\n\tmapping(address => Gyan) gyanCoins;\n\n\tfunction GyanCoin(\n\t\tKarmaCoin _karma\n\t) public {\n\t\trequire(_karma != address(0));\n\n\t\tkarmaCoin = _karma;\n\n\t\t_dailyStartTime = now;\n\t\t_weeklyStartTime = now;\n\t\t_currentDayNumber = 1;\n\t\t_yesterdayMint = 1000; // Default starting Gyan mint rate on day 1\n\t}\n\n\t/**\n    * @dev current rate of daily minted gyan coin\n    */\n\tfunction yesterdayMint() public view returns (uint256) {\n\t\treturn _yesterdayMint;\n\t}\n\n\t/**\n    * @dev total supply of Gyan\n    */\n\tfunction totalSupply() public view returns (uint256) {\n\t\treturn totalSupply_;\n\t}\n\n\tfunction mintFor(address _to, uint256 _amount) public {\n\t\tif (dailyPeerBucket[_currentDayNumber][_to] == 0) {\n\t\t\t// User learning for the first time on this day of the current week\n\t\t\t// Added him to the day's bucket\n\t\t\tdailyPeerBucket[_currentDayNumber][_to] = _amount;\n\t\t\tdailyPeerArray[_currentDayNumber].push(_to);\n\t\t} else {\n\t\t\t// User learning again on the same day\n\t\t\t// Adding to his floating Gyan value of the day\n\t\t\tdailyPeerBucket[_currentDayNumber][_to] = dailyPeerBucket[_currentDayNumber][_to].add(_amount);\n\t\t}\n\n\t\ttotalSupply_ = totalSupply_.add(_amount);\n\t\tgyanCoins[_to].floatingBalance = gyanCoins[_to].floatingBalance.add(_amount);\n\t\tgyanCoins[_to].timestampIndex.push(now);\n\t\t_todayMint = _todayMint.add(_amount);\n\n\t\t// On Day Change\n\t\tif (now >= _dailyStartTime + 1 minutes) {\n\t\t\t_dailyStartTime = now;\n\t\t\t// Save the total mint count for yesterday and reset today's count\n\t\t\t_yesterdayMint = _todayMint;\n\t\t\t_todayMint = 0;\n\t\t\t// Change the day number of the week\n\t\t\t_currentDayNumber = _currentDayNumber.add(1);\n\t\t\t// On week change, reset day number to 1\n\t\t\tif (now >= _weeklyStartTime + 7 minutes) {\n\t\t\t\t_weeklyStartTime = now;\n\t\t\t\t_currentDayNumber = 1;\n\t\t\t}\n\t\t\t// Send out rewards to every peer who learnt last week\n\t\t\t// TODO: Currently rewarding everyone equally. Change to reward based on elliptic curve.\n\t\t\tfor (uint i = 0; i < dailyPeerArray[_currentDayNumber].length; i++) {\n\t\t\t\tuint256 percentGyanEarnedToday = dailyFloatingBalanceOf(dailyPeerArray[_currentDayNumber][i], _currentDayNumber).mul(100).div(_yesterdayMint);\n\t\t\t\t// Reward user with Karma\n\t\t\t\tkarmaCoin.mintFor(dailyPeerArray[_currentDayNumber][i], dailyKarmaMint().mul(65).div(100).mul(percentGyanEarnedToday).div(100));\n\t\t\t\t// Move Gyan from floating to fixed balance\n\t\t\t\tgyanCoins[dailyPeerArray[_currentDayNumber][i]].fixedBalance = gyanCoins[dailyPeerArray[_currentDayNumber][i]].fixedBalance.add(dailyFloatingBalanceOf(dailyPeerArray[_currentDayNumber][i], _currentDayNumber));\n\t\t\t\tgyanCoins[dailyPeerArray[_currentDayNumber][i]].floatingBalance = gyanCoins[dailyPeerArray[_currentDayNumber][i]].floatingBalance.sub(dailyFloatingBalanceOf(dailyPeerArray[_currentDayNumber][i], _currentDayNumber));\n\t\t\t\tdelete dailyPeerBucket[_currentDayNumber][dailyPeerArray[_currentDayNumber][i]];\n\t\t\t}\n\t\t\t// Empty the buckets of the day\n\t\t\tdelete dailyPeerArray[_currentDayNumber];\n\t\t}\n\t}\n\n\tfunction dailyFloatingBalanceOf(address _owner, uint256 _currentDayNumber) internal returns (uint256) {\n\t\treturn dailyPeerBucket[_currentDayNumber][_owner];\n\t}\n\n\t/**\n\t  * @dev Gets the daily karma minting value of the protocol.\n\t  * @return An uint256 representing the amount of karma minted everyday.\n\t  */\n\tfunction dailyKarmaMint() public view returns (uint256 dailyMint) {\n\t\treturn (karmaCoin.totalSupply().mul(5).div(100)).div(365);\n\t}\n\n\t/**\n\t  * @dev Gets the daily karma minting value of the protocol.\n\t  * @return An uint256 representing the amount of karma minted everyday.\n\t  */\n\tfunction averageDailyPeers() public view returns (uint256 averagePeers) {\n\t\treturn (dailyPeerArray[1].length + dailyPeerArray[2].length + dailyPeerArray[3].length + dailyPeerArray[4].length + dailyPeerArray[5].length + dailyPeerArray[6].length + dailyPeerArray[7].length).div(7);\n\t}\n\n\t/**\n\t  * @dev Gets the daily karma minting value of the protocol.\n\t  * @return An uint256 representing the amount of karma minted everyday.\n\t  */\n\tfunction potentialKarmaReward(address owner) public view returns (uint256) {\n\t\tuint256 karmaRewards = 0;\n\t\tfor (uint i = 1; i <= 7; i++) {\n\t\t\tuint256 percentGyanEarnedToday = dailyPeerBucket[i][owner].mul(100).div(_yesterdayMint);\n\t\t\tkarmaRewards = karmaRewards.add(dailyKarmaMint().mul(65).div(100).mul(percentGyanEarnedToday).div(100));\n\t\t}\n\t\treturn karmaRewards;\n\t}\n\n\t/**\n\t  * @dev Gets the floating balance of the specified address.\n\t  * @param _owner The address to query the balance of.\n\t  * @return An uint256 representing the amount owned by the passed address.\n\t  */\n\tfunction floatingBalanceOf(address _owner) public view returns (uint256 balance) {\n\t\treturn gyanCoins[_owner].floatingBalance;\n\t}\n\n\t/**\n\t  * @dev Gets the fixed balance of the specified address.\n\t  * @param _owner The address to query the balance of.\n\t  * @return An uint256 representing the amount owned by the passed address.\n\t  */\n\tfunction fixedBalanceOf(address _owner) public view returns (uint256 balance) {\n\t\treturn gyanCoins[_owner].fixedBalance;\n\t}\n\n}",
  "sourcePath": "/Users/aakash/WebstormProjects/pbether/contracts/GyanCoin.sol",
  "compiler": {
    "name": "solc",
    "version": "0.4.23+commit.124ca40d.Emscripten.clang"
  },
  "schemaVersion": "2.0.0",
  "updatedAt": "2018-06-08T09:32:41.037Z"
}